:020000021000EC
:100000006FC0514D000000000018011800280128A1
:100010000228032800290129022903290429052986
:10002000062907290829002A012A022A032A042A64
:10003000052AA62AB8CF02006A0D01000E0E0100A3
:100040004E0E0100BE0D0100AC0D0100683900200C
:10005000720E0100561101007E110100D61201003E
:10006000621301007A0C0100AA0B0100140C0100BC
:10007000D60B01008C170100883900206C0E01009E
:10008000BC1401007C96020036980200A898020079
:10009000DA5D0200EA5D0200C0FB0100B4F001007D
:1000A00088A00200EA14010066630200A0AE01000D
:1000B00026AF01007EAF0100CE1C01001A1D010019
:1000C000901B01006C6E01006E69010066770100F3
:1000D000327B0100DA7E0100E45B0100825B0100FB
:1000E000685F0100305C0100585B0100DC5B0100CF
:1000F0000A5B0100AC5C0100045D0100B45C01001E
:10010000B85C0100545D01000C5D01003E5D010022
:100110006062010068620100A85C0100B05C01003F
:10012000505D010064620100045E01009C630100F7
:10013000D28C01004C8D01007A8D01004C700100C1
:1001400064700100A0700100C65501008E560100C8
:10015000E6560100F23801006A340100764F0100D2
:10016000DA340100CA4E0100E4B4020068B20200B1
:1001700042BC020074C80200A8C70200DECA020026
:10018000DACA0200B8A5020072CB02002AA302005C
:1001900002CB020044C102005EC1020082C1020023
:1001A000E2CB020008C602009EC5020052CC02004B
:1001B00038A50200C0A50200E4A5020086A5020041
:1001C00026780200BA670200406A02001C6802003A
:1001D000166C0200D0A0020012A002005AA3020076
:1001E000FC1801004C5F02004A6302001C6402001C
:1001F000088C0200368C0200B08C020032740100C0
:10020000FC770200966C020052710200626E0200DE
:1002100072670200D61301009C5F0200000000001C
:1002200000000000000000000000000000000000CE
:1002300000000000000000000000000000000000BE
:10024000A16785072A876397F50083C781AB0145BE
:10025000C9EF8280014549CFC1CDB307E0408D8B06
:10026000BA97C207C183130740036364F70203A56B
:10027000C1BE83A641BE6391A60283A701C6014504
:10028000A5CB411106C605458297B2400145410103
:10029000828003A581BEF1BF0357650029E703579C
:1002A00045006362F704B306F74021466370D60247
:1002B0001041938687001D8FAA96611790C22392E2
:1002C000E6002393060014C12312F500A16723134F
:1002D000B50085076397F50083C781ABFD17238CB5
:1002E000F1AA21058280084179B701453DF7828056
:1002F000828009C903A8C1BE83A541BE0147C28748
:1003000063E3B70082809443636DF50663EBA60652
:1003100013868700E368C5FE03D5670021660506DE
:100320006317C50003C681AB0506238CC1AA2393BE
:1003300007006383070303A681BE630FF60003561D
:10034000670019EA83D7470014C383564700B6975E
:10035000A1072312F700BA879843E305B7FA83A6EB
:1003600081BEE301D7FA83566700C9FE83D64700F2
:10037000035647001843A106B2962392D70098C3AC
:1003800082803E87B687ADBF19CDB71700401307EF
:1003900070052380E704130780FA2380E70423967F
:1003A000A70223800704828019C1814799E98280CE
:1003B0003387F500834607003307F50085072300E0
:1003C000D700E397C7FEE5B7797126D283A781C12D
:1003D00006D622D44AD04ECE52CC81C7829723ACC7
:1003E00001C0138481C15C4089CB03D581C2693FC0
:1003F0005C40829703D501C2413F83A781C1639EC0
:100400000712938781E503C75700058B6305071023
:10041000A382070083C7770009476393E70C892904
:10042000970002E0E7802065938641BF03A741C2A1
:1004300003C616003E8A938941BF83C741BF939686
:100440001700BA9683D606006381060E83C741BFA4
:1004500063F2C70686073E978355070023100700FF
:1004600003D581C22EC60D3703C541BF83A741C145
:1004700013172500B245BA979C4382972A8903D562
:1004800001C2193783C741BF1397170083A741C221
:10049000BA9703D707003369E9002390270183C780
:1004A00041BF03C71900850793F7F70F238AF1BEF1
:1004B00063E4E700238A01BE83A781C1BDEF03D5B2
:1004C00081C2D93597D000E0E78020412254B25054
:1004D00092540259F249624A03D501C245616DB591
:1004E0000D476398E700692697D001E0E780C00ECA
:1004F00025BF15476398E700A52E974002E0E780E7
:10050000A0AA1DB71D47E391E7F29D2697B001E031
:10051000E780008711BF83C741E8918BE38607F02E
:10052000973002E0E780A0C001B7850793F7F70F87
:10053000238AF1BEE3E3C7F011BFB25022549254B4
:100540000259F249624A456182809167B7C600400C
:1005500093873730411123A6F620010001009387CD
:1005600041BF984F83A741E73A07F053B707100000
:10057000FD17918F9983D98F3EC6B1679387373026
:1005800023A6F6203245410182804111B717004071
:10059000985F3AC6945F3247E39CE6FE32454101DC
:1005A000828083A781E2411122C406C62A84E1E346
:1005B0004165130525F597D001E0E780209F45C9E7
:1005C0008347E5002317F5008327840FC1EB232C15
:1005D000A40E232EA40E8547231AF402232005001F
:1005E0008347B40054412315F5000347A4002304B6
:1005F000E50003A701E71385170215811C437D154C
:100600001375F50F9CC25C4393860602130707021D
:1006100023A2F6FE832787FE23A4F6FE8327C7FEC8
:1006200023A6F6FE832707FF23A8F6FE832747FFAE
:1006300023AAF6FE832787FF23ACF6FE8327C7FF96
:1006400023AEF6FE45FD938781D703D787000507C4
:100650002394E700B2402244410182808327C40FE3
:1006600088C383574403232EA40E8507B5B7834759
:10067000840023080400054593C747002304F400C1
:10068000D1BF83A601E3411126C49C5E22C6BA8471
:100690009983858B9DCB9C5E93F7F7FB9CDE83C78C
:1006A00081E5138481E593F7070489C783A741C7D0
:1006B000829708C88547A302F40083A741E75844FE
:1006C000B8D3930700F82302F40003A701E31C5FEB
:1006D0008583858BC9CB1C5FF59B1CDF0100010066
:1006E0000100010001000100010001000100010002
:1006F00001000100010001000100010001000100F2
:1007000001000100010001000100010001000100E1
:1007100001000100010001000100010001000100D1
:1007200001000100010001000100010001000100C1
:1007300001000100010001000100010001000100B1
:1007400001000100010001000100010001000100A1
:1007500001000100010001000100010003A741E7C1
:100760003C4BBD9B3CCB83A7C1E2D8430583058BA3
:1007700019C7D843759BD8C3D843799BD8C3324493
:10078000A24441017300203083A741E7094798C381
:10079000938781E537F700E083C62700858A95E6D1
:1007A00083C63700858A95E283C64700858A91EE25
:1007B000832607D1ED9A2328D7D0832607D1DD9A47
:1007C0002328D7D073005010C1BF8280138781E5E2
:1007D000B7F700E083463700858A95E283464700F5
:1007E000858A91EE83A607D1ED9A23A8D7D083A658
:1007F00007D1DD9A23A8D7D073005010E1BF8280C3
:1008000083A741E7B7C60040A8CB9305C0031306F2
:100810002003138781E583A78620C18393F7F7031D
:1008200063E9F50083A78620C18393F7F703636626
:10083000F60083474700858BF9DF8280138781E5C7
:10084000B7F700E083462700858A95E28346470094
:10085000858A91EE83A607D1ED9A23A8D7D083A6E7
:1008600007D1DD9A23A8D7D073005010E1BF828052
:10087000138681E5B7F700E003C781E5058B15E72F
:1008800003471600058B15E303474600058B11EF60
:1008900003A707D16D9B23A8E7D003A707D15D9BD2
:1008A00023A8E7D073005010C1BF828083A741E71F
:1008B000B7C60040A8CBC1456546138781E583A72D
:1008C0008620C18393F7F70363FDF50083A7862095
:1008D000C18393F7F7036366F60083474700858B70
:1008E000F9DF8280138781E5B7F700E083461700C0
:1008F000858A95E283464700858A91EE83A607D1D3
:10090000ED9A23A8D7D083A607D1DD9A23A8D7D004
:1009100073005010E1BF8280034715001507719BDB
:100920000D072A9709C68347F7FF2300F600834780
:100930000700054593F60701B9E291C5E207E18793
:10094000094563CE07028347E7FF0347D7FFA207A6
:1009500093F70770D98F1397070141839376074068
:1009600099C2936707809386A1AC0397060009C7D5
:10097000BA970947B3C7E7022390F6000145828082
:1009800003A541E7938781E5144513970601418349
:1009900093F81620BA856385080693F606206380CF
:1009A000061083C62700B708001093E616002381BF
:1009B000D7009306001934D1930600F82382D7009C
:1009C00003A501E35455F19A93E6260054D514414A
:1009D000B3E6160114C183A681E39DC283A8460035
:1009E00003A3860003A508003365650023A0A800C3
:1009F00083A8C600D44A03A50800C98E23A0D80046
:100A000093F625109DCE93F50510CDC583C681E5DF
:100A100093E61600238CD1E483A681E323820700AA
:100A2000A382070089CE884A03A846010C41B3E59A
:100A300005010CC1884294460C41CD8E14C123940B
:100A4000070083C547001347F7FF83A641E71396C6
:100A50008501420761864183635F06001316170113
:100A600063510606AC5209466367B6000546238209
:100A7000C700BC52FDFF838741C463DD07009317A5
:100A80000701C18763D30704F052894763E4C700B5
:100A9000FC52FDFF9C467D8F98C67300203083C6B4
:100AA00017002394070093E61600A380D700238243
:100AB000070015B783C6370093E61600A381D70059
:100AC000A1BF05462382C7007DB7DC461396070108
:100AD000635C0600B7071000FD17FCD2938741BF87
:100AE000904F050690CF7DB7A1675D8F65B703A7CF
:100AF00041E9832607098327070913965600E583F2
:0A0B0000858BE35806FEF5D78280CE
:100B0C0083A501C3938701C31386052223A6C1BE07
:100B1C0003D74700938785FFBA97056523A2F1BEDB
:100B2C001D05930600206364E500935637003307D8
:100B3C00D60023A4E1BE23A0E522E1162312D600A1
:100B4C00231306001CC3998FE1172312F7002313FC
:100B5C000700828083A7C1BE03A641BE2A87B305C6
:100B6C00B5406314F6003A8529A8938687009C4308
:100B7C00E369D7FEE377F7FE2E85E3E4D5FEE3F2D7
:100B8C00F5FE828023AC05FE1C4181E70CC18280FE
:100B9C00BA8703A787FF6DFF23ACB7FE82801DC108
:100BAC008346E5FF1307F00F9147639EE600411162
:100BBC0006C69730FF1FE78040CFB24081473E8585
:100BCC004101828095473E85828001E90145828002
:100BDC000145B240224441018280411122C42A8441
:100BEC00210542059305D004418106C69730FF1FAD
:100BFC00E78080C071DDFD5723200500231285009E
:100C0C002303F5002105F1B7411126C283A701BFCB
:100C1C0022C44AC006C60144014989E7A16575256D
:100C2C0015C401A803C7E7FF6319A70205CCA1658A
:100C3C001D2C03A701BF832784FF6317E40223A89D
:100C4C00F1BEFD57232C04FE230FF4FE2285B24087
:100C5C002244924402494101828011E03E8983A7DB
:100C6C0087FF65BF3E84E5BF232CF9FED9BFB9C50C
:100C7C0083C751BF411122C406C62A842E856368DE
:100C8C00F400313F0D45B24022444101828083A7DC
:100C9C0085FF99E703C7E5FF9307F00F6305F7009E
:100CAC00FD3D1545CDB7238F85FE138501BFD93D7D
:100CBC0022852244B240A165410175A2154582806E
:100CCC0023A801BE828083A7C1C299E33E8582809E
:100CDC0003D727006316B70003C70700E308A7FE76
:100CEC00DC47E5B74111939705014AC006C622C4FB
:100CFC0026C2C1872E8963DE0700393711C14535FD
:100D0C0021653345A900B240224492440249410175
:100D1C008280AA860145E5D901443D47B3578940F5
:100D2C00858B8DCB83A4C1C6BD4791E28147A29729
:100D3C008E070545BE9433158500131405019C40A0
:100D4C00C8404180829723A0040023A204003345AD
:100D5C00240155BF0504E313E4FC0144CDBF83A774
:100D6C0001C5411122C406C61384019F85C7829711
:100D7C0008C00840B74703009387D73F3305F502F7
:100D8C00B7A72600938737ECB2403E9508C02244A3
:100D9C0041018280184083A741C0BA971CC0D1BFC3
:100DAC002A9609E582800505A30FB5FEE31DC5FE55
:100DBC00D5BF81473307F5000307070019E33E85CC
:100DCC0082808507C5BF01112E8626CAAA841315F9
:100DDC0006019305F004418122CC06CE32C6973031
:100DEC00FF1FE78060A12A8419C53246A68597307B
:100DFC00FF1FE780E0B62285F2406244D2440561D1
:100E0C00828081476314F600054582803307F50024
:100E1C008507B386F5000347070083C6F6FFE38317
:100E2C00E6FE014582809307F6FFBE952A96631372
:100E3C00C5008280FD1583C715000505A30FF5FEBF
:100E4C00FDB7814711E9014582803307F50003475F
:100E5C000700E31AB7FE8507E319F6FE0545828005
:100E6C0003A541C0828083C751BF637EF5009317F1
:100E7C00150003A541C23E9583570500DD8D231057
:100E8C00B500014582800D45828039714AD893871F
:100E9C0081E506DE22DC26DA4ED652D456D25AD062
:100EAC005ECE83C7B700138981E5A9C30344A900AB
:100EBC00A30509008947631FF406938481D7BC40BE
:100ECC0003C7770005C703C65700B755550037C58C
:100EDC00898E93855555130565EDEF50A119BC40CE
:100EEC00A3038900130710FA2383E70083A701C724
:100EFC009DC782972A8A05C5938741BF984B9389D2
:100F0C0041BF2A9798CB7D57D8C703A4C1C23E8B4B
:100F1C00938401C3814A51E8DC50639B070EF25065
:100F2C006254D2544259B259225A925A025BF24B31
:100F3C00216182808D47631AF402938481D7BC446B
:100F4C0003C7770045D703C65700B755550037C5BB
:100F5C00898E93855555130565EDEF50A111BC4451
:100F6C00A3038900130710FB41B79547E310F4F86E
:100F7C00938781E703C7E700118B2DDB03C7C1E320
:100F8C0003C6370083C62700058B09CFC84319C990
:100F9C00834515000905EF50F12929D98547A3058B
:100FAC00F900A9B781450145FDB718448147637421
:100FBC00EA00B3074741D8501CC419C703A7C9009E
:100FCC0063F4E70023A6F90085EB8355240099ED23
:100FDC005C44639C0A0223A6F1C2832BC4002285C5
:100FEC009730FF1FE780608C5E8435B703450400A3
:100FFC009D3D5C4081CB1CC483572400F1DBA28A4D
:10100C00404411BF1C44E9D7C5BF23A6FA00F1B771
:10101C0083C6190003A641C2814713F7F70F63601B
:10102C00D708834779000D47F91793F7F70FE37843
:10103C00F7EE83C741E8918BE39307EE6800EFE08E
:10104C0030287D576305E50C03C43401B247E378BF
:10105C00F4EC83A9C90083C744016381E906858B3D
:10106C00B9C7D147B389F902E37B34EB9730FF1F43
:10107C00E78020ADB24763F3F900CE8703C4340197
:10108C00818F3384A7008387440163CF0702B7079E
:10109C00C0A8636BF402B70740573E9435A0850790
:1010AC001397170032970357E7FF25DB8DBD930786
:1010BC009002B389F90293D919007DB7E207E18751
:1010CC0063DF07023304854003D501C29730FF1F4D
:1010DC00E7800087DC50228519E03705C0A882978D
:1010EC001375F50FE31D05E283274901E38907E238
:1010FC00EF40F165EF502143EF40F15E0DB5E37326
:10110C0085FCB707C0A8338487402A9475BF83A792
:10111C00C900E386A7E003C74401058B0DC3514406
:10112C003384870283C73401E3FB87DE9730FF1FCC
:10113C00E78020A183C734011D8C2A94A9B713041E
:10114C009002338487020580F1BF83C751BF63705F
:10115C00F5029317150003A541C293C5F5FF3E9503
:10116C0083570500FD8D2310B500014582800D4588
:10117C00828083C751BF6364F500014582804111B1
:10118C0022C426C24AC006C62A842E89B284253EB1
:10119C0001C504C5054515A0936504F0C205C181C0
:1011AC0041459720FF1FE780206511ED83A701C6FD
:1011BC0081C7A285114582970145B24022449244D1
:1011CC0002494101828083A7C1C28DE323A6A1C23B
:1011DC0085472326050004C523112501230085001E
:1011EC00A300F5002322050075B7BA87D84775FF11
:1011FC00C8C7F9BF55C139715AD022DC26DA4AD892
:10120C004ED652D45ECE66CA6AC86EC606DE56D2BA
:10121C0062CC3689328AAE89AA8401445A8DB94D82
:10122C00854BF94C03A7C1C6131C3400937AF40FF9
:10123C0062971C43A9EF13B5FA0013451500B39739
:10124C008B0063F65D01930714FFB397FB00939536
:10125C000701C1815286313F1DC983A7C1C6014513
:10126C00E29784C323A237016304090023005901C8
:10127C00F2506254D2544259B259225A925A025BD9
:10128C00F24B624CD24C424DB24D2161828005042E
:10129C00E31A94F92145E9BF09458280411122C422
:1012AC0026C24AC006C6AA842E893284D935CA857C
:1012BC002685113C09C940C10145B24022449244E3
:1012CC000249410182802145CDBF411122C426C271
:1012DC004AC006C6AA842E89FD322A8419C123115C
:1012EC000500CA8526859535014511E01945B240A2
:1012FC00224492440249410182807547636BA704E2
:10130C0083A6C1C6411126C293143500A6969442F9
:10131C0022C406C6AA873A8409459DC613B5F700B0
:10132C003947134515006373F700C5178545B39509
:10133C00F500C205C181513F83A7C1C60145A697DF
:10134C0023A0070023A20700B2402244924441018B
:10135C00828009458280411106C6B53209C508450F
:10136C00B240410182800145E5BFF54763ECA7041B
:10137C0083A7C1C613173500BA979843894721C76D
:10138C00011126CA06CE9334F50022CCB94793C47A
:10139C00140063F3A700451505443314A40042045C
:1013AC0041802EC62685A2857D378947324609C5E0
:1013BC00A28526857D3B8147F2406244D2443E851E
:1013CC000561828089473E8582802394A1C2239047
:1013DC00B1C28280411106C623A8A1C60295B240B3
:1013EC0023A4A1C0014541018280854763E7B70072
:1013FC008A05938781C1BE9588C18280411106C63A
:10140C0022C426C2EFF0CFEF21468145138581C15E
:10141C00413A13060002138541BF8145513223A680
:10142C0001C223A801C683C7C1C4138441BF93055D
:10143C00101013D527008D8B3E958D473305F50283
:10144C00994735051375F50F2301A4003305F502F3
:10145C001305050F9720FF1FE780003A23A6A1C6AE
:10146C00834724001305050F23AAA1C08A073E95C4
:10147C0023A2A1C2EFF0DF84A92E8347140003A797
:10148C0041C1B7160100139627003A96938606CFF2
:10149C0014C213862700850793F7F70FA300C40027
:1014AC00B24022448A07BA9794C392444101828085
:1014BC00138741BF834717008346270063FED7007D
:1014CC0083A641C113861700A300C70013972700FA
:1014DC00369708C33E8582809307F00FE5BF411114
:1014EC0022C4004106C626C24AC08947630D040EB9
:1014FC004177618FB706002089476316D70E0359D1
:10150C0045006302090EAA8419469305F00F59058C
:10151C00EFF03F9305478D476307E50C22854A861C
:10152C008145EFF0FF871306C0038145138501C386
:10153C00EFF01F871306C003A685138501C3972000
:10154C00FF1FE780E041938701C303D7C70009E77A
:10155C00130700202396E70003C7E70001E70547C0
:10156C002387E70003C7F70001E76D47A387E70070
:10157C0003C7070101E715472388E70003C71701D5
:10158C0001E70547A388E70003C7570109E703C72D
:10159C000701A38AE70003C7270101E75147238905
:1015AC00E70003C7E70109E713078002238FE70071
:1015BC0003C7E7018D463357D70283C637019DEA2F
:1015CC001307D7021377F70FA389E70003C7D401DA
:1015DC0001E70947A38EE7009C5781C78297239D9B
:1015EC00A1BE293D8147B2402244924402493E8526
:1015FC004101828083C634013697E9B7411106C692
:10160C009720FF1FE780E05303C641C4058A15CA23
:10161C00930730333307F502B337F5023983CA0722
:10162C00938541BFD98FD849938641BF0145630744
:10163C00F7006370F7023385E740DCC9B240410123
:10164C008280E5473307F502B337F5022583DE07C1
:10165C00C1BF37653D0809C637856F08130505906E
:10166C00198D3E95DCCAD9BF011122CC06CE2A8435
:10167C002EC6EFF0CFEEB245F240818D33A5A50218
:10168C00229562441375F50F05618280011122CCFD
:10169C0006CE2A842EC6EFF08FECB245F240818D37
:1016AC0033A5A502229562444205418105618280E1
:1016BC00011122CC06CE2A842EC6EFF04FEAB24599
:1016CC00F240818D33B5A50222956244056182807A
:1016DC00138701C31857011122CC06CE26CA4AC85B
:1016EC004EC6138481E539CF138901C30297138742
:1016FC0041BF03576700AA84938941BF35CFBA878E
:10170C006373A700AA87C207C183BA8663F3E40098
:10171C00A686C206C182958F1307C003635EF704C9
:10172C008327C90291C3829785472304F400EF40B5
:10173C00314E23939900F2406244D2444249B2495B
:10174C0005618280834784008DE783479400850779
:10175C0093F7F70FA304F400A18BF1DF8547231453
:10176C00F4006244F240D2444249B24905616F40F0
:10177C00B14FA3040400F5B783478400CDDFD5B780
:10178C00138701C35857011122CC06CE138401C311
:10179C0001C72AC60297324509CD23AAA1C637151F
:1017AC000100130585603D31F2406244014505613D
:1017BC008280030744016359070037470020130751
:1017CC00A7B023AAE1C6E1BF374700201307A7B48F
:1017DC00CDBF011122CC138401C3084406CE26CA06
:1017EC0019E50545F2406244D244056182805C589B
:1017FC00EDDB185C7DD77000854582971844B247A5
:10180C00E301F7FE0345E4008357C4009305E004AD
:10181C003305F502938441BF420541819720FF1F98
:10182C00E78080FDC8CC55DD8357C4000346E40037
:10183C009305F00F3306F602EFF08FD6D04C084428
:10184C008357C40008C28345E400B385F5021C5CD1
:10185C0089818297C84C9720FF1FE78000050145BE
:10186C0023AE040041B7411122C4938701C39C47A6
:10187C0026C206C6938441BFB1CF138401C31C5C3E
:10188C00B1CBDC4C85E30345E4008357C4009305DE
:10189C00E0043305F502420541819720FF1FE780E4
:1018AC00A0F5C8CCC84C1DC58357C4000346E40042
:1018BC009305F00F3306F602EFF08FCED04C0844B0
:1018CC008357C40008C28345E400B385F5021C5C51
:1018DC0089818297C84C19C59720FF1FE780E0FCCF
:1018EC0023AE0400B240224492440145410182805F
:1018FC0001114AC8938741BF22CCC04F4EC652C477
:10190C0056C206CE26CAAA8AAE89328A138941BF2C
:10191C0039E0938401C39C4499E3A944BDA803C551
:10192C00E40083D7C4009305E0043305F5024205B7
:10193C0041819720FF1FE78020EC2A8441C1DC58AD
:10194C00B5CF83C5E40003D7C4002A868844B38589
:10195C00E5028981829791451307A00589819397A8
:10196C002500A29783C607006396E60483C617007A
:10197C00639F560385058A054E86A295528597204E
:10198C00FF1FE780E0FD8327C9018144638787003F
:10199C0022859720FF1FE78040F1F24062442685A4
:1019AC004249D244B249224A924A0561828083D587
:1019BC0027006DB78327C901E38187F6228597201D
:1019CC00FF1FE78080EE91BF938701C39447A9C2A4
:1019DC00985F1DCF0546631DC502411122C41384B7
:1019EC0041BF504C06C60DC283C5E70083D7C70064
:1019FC003685B385F50289810297484C9720FF1FE5
:101A0C00E780A0EA232E0400B240224441018280E8
:101A1C00828001114EC6938741BFDC4F22CC4AC84D
:101A2C0052C406CE26CA2A8A2E893284938941BF93
:101A3C00B1EB938401C303C5E40083D7C4009305C1
:101A4C00E0043305F502420541819720FF1FE78032
:101A5C00A0DA23AEA9002A8611E92945F240624496
:101A6C00D2444249B249224A05618280884419C94C
:101A7C00DC5889CB83C5E40003D7C400B385E502E9
:101A8C008981829703A5C90191461308A005FD55CC
:101A9C0093D72600C207C183139727002A970346C2
:101AAC000700631B06038348170003562700639344
:101ABC004803B306D64063CD260185078A073E95B9
:101ACC004A86A2859720FF1FE78080E9014579B7F8
:101ADC00A300B700B2866DBF138601C38345E60031
:101AEC000356C600B385C502338626011106E3E60C
:101AFC00C5F613063900719A1106B2962300070138
:101B0C00A30047012311D7004DBF0145828083C735
:101B1C0005002300F50083D72500A300F50083D72B
:101B2C002500A1832301F50083C74500A301F5001F
:101B3C001145828023AA01A223A801A2828029C177
:101B4C00411126C206C622C4AA8401458DC52E8425
:101B5C00B7D5020022854146938505E39720FF1FE8
:101B6C00E78000E083C7040005452306F40083C723
:101B7C001400A306F400B240224492444101828036
:101B8C0001458280011122CC26CA06CE0947AA84BF
:101B9C0032846381E50441468147639BC500638FB2
:101BAC00E6006397B6000DA841478147638EE600B7
:101BBC00F2406244D2443E85056182808A8522854A
:101BCC00BD3F41468A8519A88A85953F41468A853D
:101BDC00228531A0E39AB6FC2E86A2852685EFF0ED
:101BEC004FA2AA87F1B723A8A1A2828023AAA1A2FF
:101BFC008280011122CC0354C50006CE26CA4AC8E5
:101C0C004EC641C083298500AE842A8803C90900C9
:101C1C00814713178901618763550702B147054551
:101C2C0063FA87045114420403552800418033871A
:101C3C008900A2864E868545EFB0D029B337A00027
:101C4C0085077D1413556900420405891379F9033E
:101C5C0041802380F400A380A400238124012392DB
:101C6C008400014719C01387190098C4094763837E
:101C7C00E7000145F2406244D2444249B249056151
:101C8C0082800545C5BFC167F917630AF502D947BC
:101C9C0063F7B702011122CC2EC606CE2A84EF7050
:101CAC001027B2456368B50022856244F240056195
:101CBC006F90A029F240624405450561828005457C
:101CCC008280C167F9176314F5006F7050244111BD
:101CDC0006C6EF90801711E15D45B240410182804C
:101CEC0091476394F502834705002300F600834770
:101CFC00250003471500A207D98F2311F60083474F
:101D0C00350001452302F600828011458280411185
:101D1C00814522C426C206C6AA84312D2A8419E51F
:101D2C0083A701A381C7F945268582972285B240F6
:101D3C00224492444101828039714ED656D25AD0F7
:101D4C0006DE22DC26DA4AD852D4AA8A2E8BB28935
:101D5C0041EF36C6BD379145EF70D02AAA844D4964
:101D6C002DC9B246054A238034010544630A0B0091
:101D7C00B68513851400029B0505131405014180DB
:101D8C00E20993D9894163D30902C1455685EF9085
:101D9C00C018654905E933868400A2852685EFB015
:101DAC00E0572A8905E131044204418091474C08EF
:101DBC005685231AF10026CC231E8100EF80902F2C
:101DCC002A8901C963070A0026859720FF1FE7802F
:101DDC00C0ADF25062544A85D2544259B259225A7B
:101DEC00925A025B21618280BA84014AADBF011113
:101DFC0022CC26CA4AC84EC606CE2A893284B68957
:101E0C00253FAA8419ED83A741A381CF054763170A
:101E1C00E40003C4090005041374F40FA2854A8579
:101E2C008297F240624426854249D244B249056108
:101E3C008280AE86B7250100014705469385A5B182
:101E4C007DB783D705002300F50083D70500A18358
:101E5C00A300F5000945828083D705002300F50017
:101E6C0083D70500A183A300F50083D725002301A8
:101E7C00F50083D72500A183A301F50011458280CD
:101E8C0083D705002300F50083D70500A183A300A9
:101E9C00F50083D725002301F50083D72500A18306
:101EAC00A301F50083C755002302F50083C7650025
:101EBC00A302F50003D585001905420541818280F6
:101ECC0083D705002300F50083D70500A183A30069
:101EDC00F5000945828083D705002300F50083D7E0
:101EEC000500A183A300F50083D725002301F5008D
:101EFC0083D72500A183A301F5001145828003D56A
:101F0C004500060542054181828083D705002300E8
:101F1C00F50083D70500A183A300F50003D52500A8
:101F2C00090542054181828083D705002300F50015
:101F3C0083D70500A183A300F50083D725002301D7
:101F4C00F50083D72500A183A301F50003D5450037
:101F5C00110542054181828083C705002300F500ED
:101F6C000545828083D70500411122C406C6230093
:101F7C00F50083D705002E841105A183A30EF5FE71
:101F8C0083D725009505230FF5FE83D7D5FFA183B5
:101F9C00A30FF5FE03C6F5FF9720FF1FE780409CBB
:101FAC0003454400B2402244110541018280894717
:101FBC00639CF50083471500034705000145A20704
:101FCC00D98F2310F60082801145828003D705003B
:101FDC00D94763FEE702011122CC06CE2EC62A8415
:101FEC00EF70E072B24683D70600636DF500228570
:101FFC006244F240B7250100014709469385E5E4A8
:10200C0005611DBBF24062440945056182800945AA
:10201C00828091479DC583460500FD15C205854705
:10202C00C1816392F60213D725008D89914791E9FE
:10203C00914701CB05052301D6002310E60048C2C9
:10204C0081473E85828009479147E39CE6FEC9475C
:10205C0033D7F502B3F5F502D1BFAE86B725010033
:10206C0001471146938545E6C1B993F7350091EBCD
:10207C008981914789C52310B60048C281473E85A6
:10208C0082809147EDBF03C745008947631AF70269
:10209C00011122CC2A84C84506CEAE86014719C54B
:1020AC002EC69D45EFE01FABB2462A8722856244BF
:1020BC00F240B725010019469385C5E80561ADB915
:1020CC000945828099E111458280834705000547C7
:1020DC002311F600E379F7FEFD1593F5F50F33D7D1
:1020EC00F502B387E702E390F5FE050548C223101D
:1020FC00E6000145828083C745000947AE866385AB
:10210C00E70041476399E700B725010001472146E5
:10211C00938505F715B1094582802310B60091E12E
:10212C00014548C201458280AE86B72501000147B2
:10213C0029469385C5EC09B12310B60091E1014500
:10214C0048C201458280AE86B72501000147314661
:10215C00938525EED5B62310B60091E1014548C212
:10216C000145828003D74500854763FDE7020111D5
:10217C0022CC2A84884106CE0DC12EC68545EFE0BF
:10218C007F9D2A8722856244B246F240B725010022
:10219C0039469385A5F0056145B6F2406244094580
:1021AC00056182800945828091479DC503470500E2
:1021BC008D46914763F2E602FD15C205C181B3C697
:1021CC00E5023308D7026399050105052310D600F3
:1021DC002311E60048C281473E85828083C74500B3
:1021EC000947AE866385E70041476399E700B72549
:1021FC00010001474146938505F73DBE09458280A4
:10220C00B335B000139525008280011122CC26CA6B
:10221C0006CE03C785008547AA842E8449466310E1
:10222C00F70245348357240049151306200963C867
:10223C00A700F2406244D2440945056182800347FD
:10224C00940085476314F70013660604484011C5D3
:10225C008D4532C6EFE01F903246A2866244F240B2
:10226C002A872685D244B7250100938565F105613F
:10227C00E1B48D4763FFB7028347150003470500A0
:10228C00F115A207D98F2310F600834735000347B9
:10229C002500C205A207C181D98F2311F600231294
:1022AC00B60089C5110508C60145828023240600A5
:1022BC00E5BF11458280011122CC2A84884506CEC7
:1022CC00AE8611C52EC69545EFE0DF88B2462A874B
:1022DC0022856244F240B72501005946938545F3A7
:1022EC0005616FF07FA5B335B00013952500828092
:1022FC00AE86B725010001476146938545F66FF020
:10230C00BFA38547114563F4D70283471600834565
:10231C000600A207CD8F2310F7009387E6FF231149
:10232C00F70089476386F600090650C30145828091
:10233C0023220700E5BF01478146794681456FF0AE
:10234C00BF9F83D705002300F50083D70500A18329
:10235C00A300F5000945828083C7250005472300AB
:10236C00F50003D505006397E7000A05050542054E
:10237C0041818280C9473305F502CDBF03D50500E5
:10238C000A0542054181828083D725002300F50090
:10239C0003D5050083D725003305F5020505420555
:1023AC004181828003D50500828003D5050082809F
:1023BC0003D50500828083D725002300F50003D5C3
:1023CC00050083D725003305F5020505420541813B
:1023DC00828083D705002300F50083D70500A183F5
:1023EC00A300F50083D725002301F50083D7250032
:1023FC00A183A301F50003D54500110542054181D8
:10240C00828083D705002300F50083D70500A183C4
:10241C00A300F50003D52500090542054181828002
:10242C0089471145639BF6008347160083460600D7
:10243C000145A207D58F2310F700828003D7050032
:10244C00D947AE8663FAE700B725010001470D4670
:10245C009385E5346FF0BF990945828011456393EC
:10246C00A60283471600834606000145A207D58FB6
:10247C002310F7008347360083462600A207D58F2A
:10248C002311F700828083C725000547FD1793F7BA
:10249C00F70F6361F70483D705008DCF011122CCB0
:1024AC002A84C84106CE15C12EC68945EFE08FEAB5
:1024BC002A8722856244B246F240B72501001546B0
:1024CC009385453605616FF09F92F2406244094551
:1024DC0005618280094582809547114563F9D706CD
:1024EC00411122C426C24AC006C683471600BA84CC
:1024FC0003470600A2073284D98F2390F400834748
:10250C0036000347260093054400A207D98F239178
:10251C00F40089472382F400094613855400368958
:10252C009710FF1FE780C0439307A9FF2394F40083
:10253C009947631BF90023A60400B240224492443D
:10254C0002490145410182801904C0C4FDB7828053
:10255C0083D705008DCF011122CC2A84C84106CE29
:10256C0015C12EC68545EFE0EFDE2A872285624431
:10257C00B246F240B72501001D46938585380561AA
:10258C006FF0FF86F240624409450561828009457F
:10259C00828099476395F6048947411106C6230248
:1025AC00F7008347160083460600B285A207D58F35
:1025BC002310F70083473600834626000346470066
:1025CC00A207D58F130557002311F700910597101B
:1025DC00FF1FE780E038B240014541018280D147BE
:1025EC0011456394F600C1474DBF828083D7050027
:1025FC008DCF011122CC2A84C84106CE15C12EC61E
:10260C008945EFE02FD52A8722856244B246F240F5
:10261C00B725010025469385453905616FF02FFDDF
:10262C00F2406244094505618280094582808947F0
:10263C001145639BF600834716008346060001454F
:10264C00A207D58F2310F7008280011122CC2A8497
:10265C00C84106CEAE8611C52EC68545EFE08FCF9C
:10266C00B2462A8722856244F240B72501002D46E6
:10267C009385053B05616FF08FF711456393A602B7
:10268C0083471600834606000145A207D58F231009
:10269C00F7008347360083462600A207D58F231107
:1026AC00F7008280011122CC2A84C84106CEAE8666
:1026BC0011C52EC68545EFE0EFC9B2462A872285A3
:1026CC006244F240B725010035469385653B0561B0
:1026DC006FF0EFF193F71600114589EB894763878B
:1026EC00F60085822312D70010C3014582800111A8
:1026FC0022CC2A84C84106CE15C12EC68545EFE0F2
:10270C006FC52A8722856244B246F240B725010084
:10271C003D469385C53B05616FF06FEDF240624419
:10272C0009450561828083D705008DCF011122CC2C
:10273C002A84C84106CE15C12EC68945EFE08FC14B
:10274C002A8722856244B246F240B72501004546ED
:10275C009385253C05616FF08FE9F2406244094591
:10276C000561828009458280854763FCD70223047A
:10277C00A700A304B7008347160083450600A207F1
:10278C00CD8F2310F7009387E6FF2311F7008947BD
:10279C006386F600090650C3014582802322070098
:1027AC00E5BF11458280014781464D4681456FF05A
:1027BC000FE48D47114563FBD70283471600834511
:1027CC000600A207CD8F2310F70083473600834500
:1027DC002600A207CD8F2311F7009387C6FF231283
:1027EC00F7006386A600110610C7014582802324DA
:1027FC000700E5BF011122CC2A84884506CEAE869F
:10280C0011C52EC69545EFE0EFB4B2462A87228556
:10281C006244F240B72501005D469385E53D0561B4
:10282C006FF0EFDC854711456397F6008347060090
:10283C0001452300F70082800147814665468145AA
:10284C006FF0EFDA011122CC2A84C84106CEAE8695
:10285C00014719C52EC68D45EFE0CFAFB2462A878A
:10286C0022856244F240B72501006D469385E54010
:10287C0005616FF06FCC011122CC2A84C84106CEC1
:10288C00AE86014719C52EC68D45EFE0AFACB246FA
:10289C002A8722856244F240B7250100754693854C
:1028AC00E54005616FF04FC9011106CE2EC6EF80D1
:1028BC00605601C9B245F2400355250005616FB061
:1028CC009004F240494505618280A38001A62380D3
:1028DC0001A623A401A423A601A423A801A423AA2E
:1028EC0001A423A201A423A001A493060005239C08
:1028FC0001C81307400B938781C92391E7002397E5
:10290C00D70011672398D7009306007D2392E70028
:10291C00239DD7001307000ABD462393E700239499
:10292C00E7002391D7024147F1762395E7002396E0
:10293C00E7002399E700239AE700239BE700239CF9
:10294C00E700938606B82394E70205472392D70243
:10295C002395E7029D46130710F82396E702239E62
:10296C000700239F0700239007022393D702239786
:10297C0007027D57239807022399E70282800111F1
:10298C0026CAAA84214522CC06CE2E8432C636C451
:10299C003AC2EFE08FA31DC9A246124732469307F5
:1029AC0000FD2300F5009947A30095002301F500D5
:1029BC002303D500A303E5002312C500AA852285B5
:1029CC006244F240D24405616FE06FAAF240624467
:1029DC00D2440561828023A4A1A4828023A6A1A451
:1029EC00828023A8A1A4828023AAA1A482800111A1
:1029FC0022CC4AC806CE26CA2A890144B3048900CF
:102A0C006368B400F2406244D2444249056182805A
:102A1C002EC6EFE0CFB493170501C183A183B24555
:102A2C002380F4009307140093F7F70F850463F9E0
:102A3C00B700CA9709042380A7001374F40F7DBF55
:102A4C003E847DBF411122C4138481C703556400A9
:102A5C00C16706C6FD17630BF50003C681D69385C7
:102A6C0081A5EF802026FD572313F400B2402244A9
:102A7C004101828009C925151375F50F1335850E93
:102A8C001345150082800145828023800500F9479B
:102A9C0063E2C708797122D426D24ECE56CA5AC8E0
:102AAC0006D64AD052CC5EC63684B289AE8A2A8B00
:102ABC00814463FF3405B307940003CA07001389EC
:102ACC0014001379F90F63050A04B3072A0163C1D3
:102ADC00F904B307240183CB07005E85613F0DC960
:102AEC009307FAFF2380FA0063906B031305190018
:102AFC002295B250225492540259F249624AD24A57
:102B0C00424BB24B45618280D29493F4F40F55B78B
:102B1C000145C5B701458280011122CC26CA4AC89D
:102B2C004EC6938781C706CE2E89D0CB8CCBC8C717
:102B3C00AA8441469305F00F4A85EFE08FB0854992
:102B4C00138481C7631735030848C1454D35414689
:102B5C009305F00F2685EFE0CFAE054963132503EF
:102B6C0048446244F240D2444249B249C1450561ED
:102B7C00BDBD414681454A85EFE0AFACE31935FD5B
:102B8C00E1B7414681452685EFE0AFABE30A25FD71
:102B9C00F2406244D2444249B249056182804111FB
:102BAC0022C426C24AC0AE842A891306000281457B
:102BBC00138581C706C6EFE0AF9E938781C7A381BB
:102BCC002701A38591D6EFB08055854719C1814760
:102BDC004945238CF1C6B24022449244024941013A
:102BEC008280814781CD19C98547631BF50083C756
:102BFC00550093E707FCA382F50085473E8582804C
:102C0C0089476317F50083C7550093F7F703E5B7BA
:102C1C000D478547E314E5FE03C755001377F7030B
:102C2C0013670704A382E500D1BF81478DC105C19D
:102C3C0003C755009306000C85471377070C6308F0
:102C4C00D700930600048D476303D70089473E8560
:102C5C008280411122C4005D06C626C21DC8AA840A
:102C6C00085009C59710FF1FE78020C4485009C5BC
:102C7C009710FF1FE78060C3085409C59710FF1F0A
:102C8C00E780A0C222859710FF1FE78000C223AC0B
:102C9C000402B240224492444101828019E583C768
:102CAC00A1C781C7138581A38280138501C9828046
:102CBC0003C5A1C7828003A541C8828003A581C832
:102CCC00828083A7C1C888438280938781C7D44BF5
:102CDC009842050798C203C537009307F00F6305A8
:102CEC00F50091656FE02F988280011122CC06CE01
:102CFC002E8432C6EF80E0209147B245631EF5006A
:102D0C0083A741A585C303A30700630D0300228598
:102D1C006244F2400561028383A7C1A481C703A367
:102D2C004700E5B7F2406244054505618280011118
:102D3C0022CC2A840355450006CE26CA4AC84EC664
:102D4C00EF80E00435C52A89834405008349C5001A
:102D5C0009374A85EF80307303554400EF80E01546
:102D6C00138901A683470900A1CB6397970483C5F8
:102D7C0011A62685EFF05FB319E123000900035576
:102D8C004400EF8000189147631DF500938781C7BD
:102D9C008356440003D767006395E6007D57239361
:102DAC00E700F2406244D2444249B2490561828054
:102DBC0081499304F00F6DB79307F00FE381F4FC96
:102DCC008346640003564400034524004E87A685C1
:102DDC00EFF0FFBA6DB779715EC6AA8B2E8552CC17
:102DEC0056CA5AC806D622D426D24AD04ECEAE8A5D
:102DFC00328B368AEF70B07979CD045D2A89E1CCBB
:102E0C009C50614599C3130540039C5481C75105DF
:102E1C004205418163050A00710542054181DC5080
:102E2C0081C7590542054181EFD03FDA2A8445C557
:102E3C0061468145EFD0DFF683C981CC63940900EC
:102E4C0083490900930700FD2300F400A947A30060
:102E5C0074012301F400230364018C5023125401E8
:102E6C001305840191C908C47146930A4403971051
:102E7C00FF1FE780E0AE56858C5491C948C451467B
:102E8C00930A45019710FF1FE78080AD5685630CB0
:102E9C000A0008C87146D285930AC5019710FF1F16
:102EAC00E78000AC5685CC5099C548C85946971058
:102EBC00FF1FE780E0AAA2854E85EFD05FDB22548E
:102ECC00B2509254F249624AD24A424BB24B4A85B2
:102EDC0002594561BDBBB250225492540259F24979
:102EEC00624AD24A424BB24B4561828001114EC6B6
:102EFC00AA892E854AC806CE22CC26CA2E89EF7006
:102F0C00106921C583C481CC99E08344050019451F
:102F1C00EFD0BFCB2A8415C981451946EFD05FE8A5
:102F2C00930700FD2300F400B947A30034012301EB
:102F3C00F40023122401A2856244F2404249B249B2
:102F4C002685D24405616FD09FD2F2406244D244B0
:102F5C004249B2490561828039715ECEAA8B2E85B9
:102F6C0026DA4ED652D456D25AD006DE22DC4AD8B5
:102F7C00AE84328BB68A3A8ABE8942C6EF70306113
:102F8C0021C92A894145EFD05FC42A8431C1414609
:102F9C008145EFD0FFE003C581CC19E10345090061
:102FAC00930700FD2300F400BD472301F400B24752
:102FBC00A30074012312940023046401A30454019C
:102FCC0023054401A30534015CC4A285EFD03FCA9C
:102FDC00F2506254D2544259B259225A925A025B5C
:102FEC00F24B21618280797126D2AA8439454AD06C
:102FFC004ECE06D622D42EC6B2893689EFD0FFBC6F
:10300C0021C1B2459307000D2310F500B1472A8466
:10301C002312B5002301F500CE851905194697102A
:10302C00FF1FE780E09323062401A2852254B250AF
:10303C000259F24913F5F40F925445616FD03FC316
:10304C00B250225492540259F24945618280411186
:10305C0026C2938481C703C7340006C622C44AC063
:10306C009307F00F630AF7042A893945EFD0FFB5AF
:10307C002A8439C1930700FD2300F500A300250124
:10308C0023010500938501C90D0519469710FF1FF3
:10309C00E780008D83D78400A28503C534002315F7
:1030AC00F40083C714002306F4002244B240924477
:1030BC00024941016FD0BFBBB24022449244024945
:1030CC0041018280011156C2AA8A314526CA4AC8DA
:1030DC004EC652C406CE22CCAE84328AB6893A8908
:1030EC00EFD0BFAE39C52A842685EF70504A1DCD6E
:1030FC0003450500930700FD2300F4009D47A30042
:10310C0054012301F40023129400231344012314CB
:10311C00340123152401A2856244F240D244424971
:10312C00B249224A924A05616FD07FB403C5B1C738
:10313C00D1B7F2406244D2444249B249224A924A3F
:10314C0005618280397162CC2A8C594526DA4AD8BD
:10315C004ED652D456D25AD05ECE06DE22DCAE8487
:10316C0032C636C4BA8B3E8BC28A468A8359010456
:10317C0003494104EFD07FA535C53246930700FDC6
:10318C00A2462300F5009547A301C500A3008501C5
:10319C002301F5002A8419461105A9C2B6859700AA
:1031AC00FF1FE780E07B23066401230A240123151B
:1031BC007401231754012318440123193401A285E7
:1031CC006254F2504259B259225A925A025BF24B53
:1031DC00624C2685D25421616FD07FA98145EFD0F6
:1031EC003FBCD1B7F2506254D2544259B259225A10
:1031FC00925A025BF24B624C21618280411122C4D3
:10320C00138481C78347240006C626C29DC7AA859E
:10321C001946138581A39700FF1FE780607403454F
:10322C002400938581A3EFF0DF9B2244B2401385E9
:10323C0081A3924441016FA0506FB240224492444A
:10324C00014541018280411126C2938781C706C680
:10325C0022C44AC003C737009307F00F938481C779
:10326C006302F7042A892945EFD03F962A841DC9A9
:10327C00930700FD2300F500A147A30025012301BE
:10328C00F50083C72400938581A3A301F50019469B
:10329C0011059700FF1FE780A06C03C53400A285C1
:1032AC00EFD0FF9C03C7440085476315F70283A743
:1032BC0001A581C79C4791C382972244B240924496
:1032CC00024903C581D65D6613060670914541011E
:1032DC006FD0DFFCB240224492440249410182800B
:1032EC00797122D406D626D24AD04ECE52CC56CAAA
:1032FC0009445DC92A8903550500AE895144EF7014
:10330C001029AA8455C1938781D683C73700854677
:10331C00BA8AFD1793F7F70F494463F7F60803478A
:10332C00C500A1476314F700639009089C5C4544F1
:10333C00A5EF9165938545711305C0029700FF1F9A
:10334C00E780804B88DC2A8A4D4439CD1306C002B5
:10335C008145EFD0FFA48357090093064A003685B8
:10336C002311FA0071469305490036C69700FF1FDA
:10337C00E780005F89472300FA0003C5C400B2460A
:10338C000356090083C581D6611513351500EFA0CE
:10339C00A0272A8463860900CE852685EF80903984
:1033AC0001C42685EFF0FF8A2285B2502254925434
:1033BC000259F249624AD24A4561828083C7B1D62A
:1033CC000547FD1793F7F70F6378F708894751C640
:1033DC00011122CC26CA4AC84EC652C406CEAA89AE
:1033EC00368AB2842E89EF70901A2A84D14729C963
:1033FC00485509C59700FF1FE780204BF1452685EE
:10340C00EFD07F9C48D4CD4705CD8346C4002147DF
:10341C008147639FE600630D0A000347A50103562D
:10342C00050193062501AA854E85EF800029AA8700
:10343C0003474400630F0900136767002302E4008D
:10344C00F2406244D2444249B249224A3E85056167
:10345C00828013674700DDB7C9473E858280E1470C
:10346C0063E9A700938781C906053E9503550500BE
:10347C00828041657D158280011122CC2A842E85A3
:10348C0026CA06CEAE84EF7090100DCDB7470F0054
:10349C009387F723094563E2870281450A854146F4
:1034AC00EFD01F90A685231081000A85418023014F
:1034BC008100A3010100EF90B077F2406244D24446
:1034CC00056182804945D5BFA384A1D682806FA0B7
:1034DC00C00C797152CC2A8A328522D426D24AD099
:1034EC004ECE56CA5AC85EC606D662C4AE8BB28AD7
:1034FC00368BBA843E89C2894684EF70500915C94F
:10350C002A8C63140A0213774B008347450015CFAE
:10351C0093E727012302FC008DEC631C0902639ADC
:10352C00090205E8ED9B2302FC00832B8C03639FAF
:10353C000B06B250225492540259F249624AD24AB2
:10354C00424BB24B224C45618280F59B93E70701BD
:10355C00D1B793E747002302FC0001CC1C4841463D
:10356C00A2852324FC0213058C019700FF1FE78022
:10357C00203F63910B02D5D80325CC0209C59700D7
:10358C00FF1FE7808032F1452685EFD0DF832326AD
:10359C00AC0261BFE30B09F80325CC0209C5970007
:1035AC00FF1FE7808030F1454A85C5B79DC483A7CE
:1035BC000B0299EB91659385357171459700FF1F4F
:1035CC00E780802323A0AB0203A50B0219C571462B
:1035DC00A6859700FF1FE780A0386388090283A7A0
:1035EC004B0299EB91659385257159459700FF1F07
:1035FC00E780802023A2AB0203A54B0219C55946D4
:10360C00CE859700FF1FE780A0351DC483A78B02D2
:10361C0099EB91659385157151459700FF1FE780D4
:10362C00A01D23A4AB0203A58B0219C55146A2858C
:10363C009700FF1FE780C0322254B2509254F249D7
:10364C00B24B224CCA865A860259424BD6855285B9
:10365C00D24A624A45616FF00FF8011126CA52C472
:10366C0006CE22CC4AC84EC62A8AAE84EF7020728F
:10367C0035C1AA893945EFD04FD52A8421CD03C94C
:10368C0081CC6314090003C909009307000D2310B2
:10369C00F400AD472301F400938569001305340051
:1036AC0019469700FF1FE780A02B93F71400858025
:1036BC0085882306F400A306940023154401A285F3
:1036CC006244F240D244B249224A4A8542490561D9
:1036DC006FD0EFD9F2406244D2444249B249224AF7
:1036EC0005618280411122C4138401A4084006C6DE
:1036FC0019C59700FF1FE780401B23200400B24030
:10370C00224441018280011106CE22CC26CA4AC82D
:10371C002EC6EF70C06729CDB24503C981CC0CD53C
:10372C00AA8463140900034905004145EFD0EFC991
:10373C002A841DCD9307000D2310F500A547230106
:10374C00F50083C75400938564001105A30FF5FEA3
:10375C0019469700FF1FE780A0209C54A285F240D9
:10376C005CC46244D2444A85424905616FD02FD073
:10377C00F2406244D244424905618280797122D47C
:10378C0006D62A842EC6EF7080600DCD8346C50008
:10379C001147AA8749456393E6029C5FB24599C3DA
:1037AC0083C567010808EF80D001B7D60100938666
:1037BC00C681100889452285EF70D074B25022540E
:1037CC00456182805145DDBF83C7B1D60547FD17E2
:1037DC0093F7F70F637AF704894721CA411122C482
:1037EC0026C24AC006C6B2842E89EF70405A2A847B
:1037FC00D14705C5630809008347450093E72700B7
:10380C002302F5004146A685130584019700FF1F8E
:10381C00E78000159C481CD48147B2402244924456
:10382C0002493E8541018280C9473E85828079717B
:10383C0022D406D62A842EC6EF70605501CDB2452F
:10384C002285230EB1006C08EF80406BB2502254DD
:10385C00456182805145DDBF6F70A060C1671387E1
:10386C00E7FF6393E50283A7C1A491EB49458280EE
:10387C004945B2402244924402494101828003A34B
:10388C000700E30503FE0283411122C426C24AC08D
:10389C0006C6FD172A892E84B2846394F50283A789
:1038AC00C1A491CB9C4381CB829711E5238021A7A6
:1038BC00A38091A67DBFA6854A85EFE0FFFE55F952
:1038CC00F5B72E85EF70A04C45D5834705000D4507
:1038DC00E39127FB22852244B2400249A6859244FB
:1038EC0041016FA05002E14763E6A70441677D17D1
:1038FC0089476382E504411122C426C206C6C54726
:10390C00AE842A84631AF5001305C0033385A5021F
:10391C0042054181EFA0F00813151400138481C9EE
:10392C002295B240224423109500814792443E8553
:10393C004101828089473E858280011106CE2AC6CC
:10394C00EFE0BFF8EF106016752DEF80F15C9387F8
:10395C0081C7130700F02391E7002382070032454B
:10396C00138781D6FD56A300D700F2402384A1D63D
:10397C00954505616F505065597193970501A6D215
:10398C0086D6A2D4CAD0CECED2CCD6CADAC8DEC69F
:10399C00E2C4E6C2EAC06EDEC187AE8463DE0746CF
:1039AC0003C581D6EFD04FA69387C1D1AA8C3ECE4A
:1039BC00138481C763930C022165258DB650265460
:1039CC0096540659F649664AD64A464BB64B264C8F
:1039DC00964C064DF25D6561828083C70C0013071F
:1039EC00200A639CE7008349340003D52C00C16591
:1039FC006686FD15EFF06FAF05A2138781D683495C
:103A0C001700130710096396E71483C71C001547AA
:103A1C00639EE7006685EFF08FB16685EFD02F9837
:103A2C0003C581D6EFD04F9EAA8C69B739476396F0
:103A3C00E71403D54C008567A5076314F50483A52B
:103A4C008C0083CA0500639B0A00850581C9194651
:103A5C00138501C99700FF1FE78080F003C781C75A
:103A6C0085476318F70E63880A00238C01C65685B8
:103A7C00EFF0EFDD5DB78947238CF1C6EFA0A06AAC
:103A8C0069BF096793072700631CF50483AA8C00A0
:103A9C0063810A0C83C70A0089EF83C72A0003C716
:103AAC001A00A207D98F2314F40083C73A00A3008D
:103ABC00F40003C781C78947631DF70883C70A0051
:103ACC0091C7238C01C603C50A005DB7834514005A
:103ADC00035584008D47238CF1C6EF50B051E5B7E8
:103AEC00930757006319F50083A78C0003C50700E3
:103AFC00EFF06FF51DB7F977E917AA97C207C183E5
:103B0C00914663EEF60083A701A5E38807F09C437A
:103B1C00E38507F066858297E31105F01DA82D0754
:103B2C00631EE50083A781A4E38907EE9C43E3862B
:103B3C0007EE0965E6852D058297F9BF896713871E
:103B4C00C7006311E50283A78C0083C70700E386D7
:103B5C0007EC9307F00FE382F9ECE6854E85EFD086
:103B6C000F917DBDB907E316F5FE83A7C1A4E386CB
:103B7C0007EADC43E685E9F34DB53D476397E70477
:103B8C0003D54C0089671387D700E300E5FE138744
:103B9C009701E30CE5FCCD07E31DF5FA0357640030
:103BAC00C167FD17631DF70083A7C1A4E38707E670
:103BBC00DC43E38407E60965E6854D05B5BF83A7BD
:103BCC0041A5E38C07E49C43EDB71307E003E392B4
:103BDC00E7F883C72C0005476393E70E83C76C0097
:103BEC00938D01A4F1E383A70D00C5CF83CA070011
:103BFC00A14903C57C00138B8C00DA85EFF0EF82B2
:103C0C0083C74C01A383AC0083D80C0103D8EC0010
:103C1C0003D74C002A8603C53C003EC283D72C0137
:103C2C00DA86D6853EC0CE87EFF0CFD183C73C0075
:103C3C0095E7DD4783D80C0103D8EC0083C67C00E4
:103C4C0083D54C003EC283D72C013EC05A87CE8709
:103C5C0005465685EF702040A381AC0083A70D006C
:103C6C0081C71145EFF01FA8938A01A603C50A006E
:103C7C00E30505DA83C511A6EFE01FC3E30F05D8F2
:103C8C0083C63C0093071003638AF60003D64C00EE
:103C9C0083C50A004E873685EFE07FCE238001A6D0
:103CAC00ADBB834A3400A9B783A701A5834A34006E
:103CBC009149A1D3DC4395DF014582971DBF29476C
:103CCC006398E70883C76C00938D01A4BDE783A7B5
:103CDC000D00ADC383CA0700A14903C57C00138B3B
:103CEC004C01DA85EFE07FF483C70C02A383AC00B0
:103CFC0083D8CC0103D8AC0103D74C002A8603C56A
:103D0C003C003EC283D7EC01DA86D6853EC0CE8716
:103D1C00EFF04FC383C73C00B1F3DD4783D8CC0130
:103D2C0003D8AC0183C67C0083D54C003EC283D73C
:103D3C00EC0121BF834A340045B783A701A5834A10
:103D4C0034009149D9DBDC43C9DB0145829771B75B
:103D5C000947639CE70083A781A4E38007CCDC437D
:103D6C00E38D07CA668582974DB92D476398E700A6
:103D7C0083A781A4E38307CA9C47DDB70D476397EC
:103D8C00E70066868D4503D54C00ADB119476395A8
:103D9C00E7069305610213051031EF8031202C10DA
:103DAC0013052031EF80911F03D66C0083578102DD
:103DBC0003D54C0063E8C70083D68C00035761021F
:103DCC0063F7E60093050002EFA0A03CB9B1637461
:103DDC00E6002393EC0063F4D7002394FC0003D794
:103DEC00CC0083D6AC0003D68C0083D56C00014884
:103DFC008147EFA0C03915B11D47E39CE7D403D729
:103E0C004C00E3E8E7D4F24706073E9783D76C00F3
:103E1C00F1172310F70035BB93F7150099CB83A747
:103E2C0081A489C7DC4399C30145829713C514004B
:103E3C0071B693F7250099CB83A701A589C7DC43FD
:103E4C0099C30545829713C524008DBE93F7450091
:103E5C000145E38507B6938781C783C75700138451
:103E6C0081C7A1C7FD1793F7F70FA302F40095EFD5
:103E7C0083A741A499CB85472302F40083A701A50E
:103E8C0089C7DC4399C30545829748442C10EF90B1
:103E9C00A0432810EFF08FB683D7A1CB9145A30296
:103EAC00F40003C581D6EFD04FC213C5440039B618
:103EBC00411122C42A84554506C6EFF04FDAB335BA
:103ECC00A00022852244B24041016FA08027797165
:103EDC0022D406D68D472E84631FF50003D7A50088
:103EEC0083D6850003D665000345340083D5450091
:103EFC00EFF04F9D09A889671387D700631FE50270
:103F0C0003C5250019E58547B25022543E8545610D
:103F1C00828083A601A4E5DA03C6360083C50600B9
:103F2C00814802C202C00148814701479106EFF067
:103F3C006FA10545EFF00FFBF9B71387E700E3041A
:103F4C00E5FC13873701631AE50003C5250045DD41
:103F5C00014781460146814561BFE507E305F5FA56
:103F6C0041677D178147E311E5FA03C75500C9473F
:103F7C00E31BF7F883D6E50003D6C5000355840090
:103F8C0083D5A500EFA0602221C15D45EFF02FCDB8
:103F9C003335A000231EA1008345440003552400A3
:103FAC007008EF6090538357C101B1FF0357E400D1
:103FBC008356C4000356A400835584000355240083
:103FCC000148EFA0C01A81B78547231EF100E9B75D
:103FDC00C1671387E7FF639CE50083A701A48DC32A
:103FEC0083C707000D47639BA7006FA08017FD17C1
:103FFC0049476395F50083A701A4E5FB3A858280C8
:10400C004947EDBF238101A623A401A63747010030
:10401C001307672623A201A623A6E1CC374701008C
:10402C009387C1CC1307E729D8C33747010013077F
:10403C00875D98C7374701001307C7FD23ACE1CC58
:10404C0037470100938781CD1307A7EDD8C3828032
:10405C00011122CC83A781A606CE26CA4AC84EC619
:10406C0052C48DC3138481A62E8AAA8401490840A8
:10407C0063129902630C0A049700FF1FE780E08229
:10408C0023200400F2406244D2444249B249224AFD
:10409C000561828093194900B3073501884709C926
:1040AC009700FF1FE78060801C40CE9723A4070079
:1040BC001C40CE97C84709C997F0FE1FE780E07EE9
:1040CC001C40BE9923A60900050955B745DD13967A
:1040DC0044008145EFC0DFCC144081477D5613F777
:1040EC00F70FE37197FA1397470036972300C70031
:1040FC008507F5B779714AD083A741A606D622D495
:10410C0026D24ECE52CC56CA5AC85EC6D1CFAA8938
:10411C00138941A6938A21A6014411ED83A681A699
:10412C0099CA03C60A002A8481479305F00F13F736
:10413C00F70F6366C708131534002105EFC0FFA8FD
:10414C00AA8401E92145EFC05FA8AA8431C10144CA
:10415C00CD49930700FD2380F4008547A3803401EB
:10416C002381F400A381840055C49389840023A285
:10417C003401014A930BF00F83C70A006373FA00F2
:10418C0039E883270900A68503C50700EFC03FAEB9
:10419C0003C50A0081456D3D0325090097F0FE1FFC
:1041AC00E780A07023200900B25022549254025987
:1041BC00F249624AD24A424BB24B45618280139714
:1041CC0047003697034707006305B70005041374CF
:1041DC00F40F8507A9BF83A781A693154A00BE9546
:1041EC0083C70500638477032380F90083C7150018
:1041FC00138529007D14A380F900194689051374D1
:10420C00F40F97F0FE1FE780A075A109050A137A39
:10421C00FA0F9DB723A20400ADB7411122C406C604
:10422C002A8405E10945EFF08FA32A8611C503C541
:10423C0081D68545EFC0FFF30545EFF07FC72A8493
:10424C0001C903C581D68545EFD02F8822855D3500
:10425C00B240224405454101828089671387B7002B
:10426C006319E50083A741A695C39C4503C50700C8
:10427C006DB71387C7008147631BE5009C4503C5D9
:10428C000700854709C583A741A6FDF381473E85F5
:10429C0082801D7186CEA2CCA6CACAC8CEC6D2C494
:1042AC00D6C2DAC05EDE62DC66DA6AD86ED6630E1F
:1042BC00052683473500AA8985C7404115C0594555
:1042CC00EFF0EF9993178501E187116C3EC201491C
:1042DC00930BF00F930DEC7183C739006361F902F6
:1042EC00F6406644D6444649B649264A964A064B99
:1042FC00F25B625CD25C425DB25D256182808307B9
:10430C008402124763CEE72A83A741A6138A41A6EB
:10431C00938481A6ADCB0347040085476309F70658
:10432C0003468400930694009305F1010545EFE0E4
:10433C00CFF5814719C18347050083460400114717
:10434C006381E60203270A008D4603471700630AC0
:10435C00D70081CB19C705C98546631DD7028D8B44
:10436C009DC303451400930C2400E685EFE0FF8BFE
:10437C00A300A4009C40AA86014D95E703460400C7
:10438C009147631FF60C9C40639C072215A4814740
:10439C00014565B78946E318D7FE858BD1B713075E
:1043AC001D00137DF70F83C721A68840E378FDFC21
:1043BC0093174D003E9503460500E30276FF034636
:1043CC001500E31ED6FC1946E68509053EC636C423
:1043DC00EFC03FA3A246B24779D198408346040070
:1043EC00330DF700E30C0DF81147639EE608032527
:1043FC00CD000DC503478400034605006308E6089D
:10440C008346040011476391E60A0325CD0019C5C4
:10441C0097F0FE1FE780604923260D0003458400BA
:10442C00EE85050597F0FE1FE780003D0DC5834620
:10443C00040011476394E6082326AD0083478400EB
:10444C00930594000505A30FF5FE0346840097F031
:10445C00FE1FE780E050834784006397071425B75D
:10446C009C4095D383C521A68146E38EB6F03E874A
:10447C00C10703C507FF6304750D850693F6F60F98
:10448C00EDB708C7EDA803258D00A5B793059400DB
:10449C000505EFC01F970547E314E5F65545EFE01A
:1044AC001FFC63030510C5B503258D0025D997F0B6
:1044BC00FE1FE780803F23240D008DB72324AD0021
:1044CC00B5BF9307000D2310F500B5472301F50088
:1044DC0083470400194693052400A301F5008307C4
:1044EC00840215052303F50083471400A30FF5FE82
:1044FC0097F0FE1FE780C046034684002386C40065
:10450C0015C21385440188C89305940097F0FE1FCB
:10451C00E780004583270A00A68503C50700EFC086
:10452C000FF579A823A80400F5B783A741A6E38962
:10453C0007DAEFF03FBC0145EFF09F9755B323002E
:10454C00C70083471400130527001946A300F70082
:10455C00E6853AC497F0FE1FE7808040034584004F
:10456C009305FC71050597F0FE1FE780E0282247B4
:10457C0005C5834604009147E395F6F048C7834789
:10458C008400930594000505A30FF5FE03468400F3
:10459C0097F0FE1FE780C03C8347840091E70347F8
:1045AC0004008547E311F7DE83270A00E38D07DC5F
:1045BC00034584005105EFC04FE1AA84E31305F0D5
:1045CC000509130494021379F90F39B3797106D6DE
:1045DC0022D426D24AD04ECE52CC56CA5AC85EC627
:1045EC0062C479C183473500AA8995C3444185C00B
:1045FC005945EFE0DFE6931A850193DA8A410149C8
:10460C00930B00FD414C83C73900636EF900B25027
:10461C00225492540259F249624AD24A424BB24B4A
:10462C00224C456182808387F40063CA5707138A42
:10463C0041A683270A00A5C75145EFC00FD92A848C
:10464C0039CD23007501A30005002301850183C723
:10465C000400194693852400A301F5008387F40018
:10466C001505A306F50083C71400A30FF5FE97F0FC
:10467C00FE1FE780E02E83C784009385940013050A
:10468C00C400A305F400194697F0FE1FE780402DE7
:10469C0083270A00A28503C50700EFC04FDD05097B
:1046AC00C1041379F90F85B783A741A6ADD3EFF0F9
:1046BC007FA42254B25092540259F249624AD24A0F
:1046CC00424BB24B224C014545616FF06FFE83A704
:1046DC0041A695C703C707008D476313A70203C5FF
:1046EC0081D64111854506C6EFC03FBE13050003B8
:1046FC00EFF05FA0B240014541016FF06FFBC9477D
:10470C003E858280011126CA938441A69C4006CE28
:10471C0022CCB9EF83C7B1D6A98BADC391652A84DE
:10472C009385D571114597F0FE1FE780E00C88C08A
:10473C0021C9A285114697F0FE1FE780602215451E
:10474C00EFE0FFD12AC61945EFE07FD103473400D3
:10475C0083C6A1C72A86034524006244B245F240B1
:10476C00D2443337E000B336D00005616F90301D72
:10477C004545F2406244D244056182804945D5BF2B
:10478C004D45C5BF83C7B1D6397122DC06DE26DAAA
:10479C004AD84ED652D456D25AD0A18B4944638DA6
:1047AC00070C83A741A641446398070C2A89EFF0B4
:1047BC00AF8A83C741D655446370F50C83A701A417
:1047CC004544DDEB91659385C571294597F0FE1F36
:1047DC00E780800223A0A1A44D4459CD2946CA8567
:1047EC0097F0FE1FE780C01783A701A483C71700AB
:1047FC00D9CF2D45EFE0BFC62A843145EFE03FC647
:10480C0083C7A1C72A894145B337F0003ECEEFE0FC
:10481C001FC52A8B3D45EFE09FC4AA8A3545EFE0C2
:10482C001FC42A8A3945EFE09FC3AA892145EFE0CE
:10483C001FC32ACC1D45EFE09FC203A701A42ACABF
:10484C000345370093054700EFE0AFB903A701A478
:10485C00E248524803462700F247AA865AC62285E8
:10486C0056C452C24EC01107CA85EF90D00D2A848F
:10487C0001C50D45EFE01FE72285F2506254D2547A
:10488C004259B259225A925A025B216182802545C3
:10489C00EFE0FFBC2A84294595B783C7B1D6014503
:1048AC00A18B99C3138581CD6FE04F93411122C425
:1048BC00138421A626C2AA8403450400854506C696
:1048CC00EFF00FF983C7B1D6A98BB5C723009400BD
:1048DC001385C1CCEFE02F90938481A69C4099C79F
:1048EC004D45B2402244924441018280034504006C
:1048FC0019E10145FDB791659385B571120597F0E6
:10490C00FE1FE78060EF88C061DD0346040081452F
:10491C001206EFC0EFC88346040090408147FD5556
:10492C0013F7F70FE377D7FC139747003297230061
:10493C00B7008507F5B7014523000400EFE0AF8908
:10494C004DBF411122C403A541A406C619C597F059
:10495C00FE1FE78080F523A201A4B240224441014E
:10496C008280011122CC06CE26CA8D472E84631379
:10497C00F50603C73500E94703D54500938481C785
:10498C006316F70083D764006382A706EF602040AC
:10499C0009C5835764002317F5000357A4008356F9
:1049AC008400035664008355440003453400EFE053
:1049BC006FF10357440083D764006309F700854700
:1049CC00F2406244D2443E8505618280FD572393B8
:1049DC00F400F5B78967CD07631DF50083C7250083
:1049EC0031476385E7004547E39BE7FCEFE08F85A4
:1049FC00F9B741677D178147E314E5FC83C6550081
:104A0C004947E39FE6FA83C545000355240030006F
:104A1C0023140100EF6040275DB7797122D483A77E
:104A2C0041A406D626D24AD00545ADC70D45EFE0C8
:104A3C001FA3AA841145EFE09FA22A899305F101D7
:104A4C001305F041EF6091010347F101938781C792
:104A5C0021CB83C727000D4789466384E700B33613
:104A6C00F00083A741A436C603C5370093854700E1
:104A7C00EFE02F9703A641A4B2462A878348B600DD
:104A8C000348A6009307460003462600CA852685E0
:104A9C00EF90E069B25022549254025945618280E1
:104AAC0083C62700B336D0006DBF7D57238AE19EA5
:104ABC00239601A623AA01A623AC01A623AE01A628
:104ACC0037570100938781B21307C7B498C3375780
:104ADC0001001307A7E2D8C337570100130767A2D9
:104AEC0098C7B75701009387E79623A8F1A6828051
:104AFC00411126C283A741A406C622C48DCF2A84A5
:104B0C000D45EFC08F8CAA8505C1930700FD2300CE
:104B1C00F5008D47A30085002301F50083A741A470
:104B2C0003C50700EFC0AF9419C42244B2409244AD
:104B3C0041016FF01FE1B240224492444101828056
:104B4C00797122D403544500896706D626D24AD0FF
:104B5C004ECE52CC56CA13876700631FE40283A75C
:104B6C0041A4814489CF1845034507001DE1054741
:104B7C00A380E7000545EF90405C01ED8544B25001
:104B8C002254268502599254F249624AD24A45610E
:104B9C008280EFF0FFF5DDB713879700636787041A
:104BAC009384419F03C704009307F00FE308F7FCBD
:104BBC001C45114503C90700EFC02F81AA855DDD97
:104BCC00930700FD2300F50089472301F500F977D1
:104BDC00E1173E9413341400A3002501A3018500B2
:104BEC0003C50400EFC0AF8851BFA9078144E31887
:104BFC00F4F883A741A4CE8AD9D3184583C41700EF
:104C0C008547034A0700138981C7638CF4028347E5
:104C1C004900ADF70D45EFB05FFBAA8505C19307C1
:104C2C0000FD2300F5009147A30045012301F50089
:104C3C0083A741A403C50700EFC06F83EFF07FD0BB
:104C4C0035BF83A741A791EF0145EFE05F812A862D
:104C5C0011C603C581D68945EFC0AFD183A741A446
:104C6C00A9A003C60700938617009305F10005451C
:104C7C00EFD0BFE171D983470500858BF1D705458E
:104C8C00EFE0EFFD9307B0032A8463F9A70203C595
:104C9C0081D65D66130606708945EFC02FE01304BC
:104CAC0044FC239681A683A741A40947A380E7006F
:104CBC008347490089CB23020900D1B51306006450
:104CCC003306C50271B75285EFF09FE24DBD797185
:104CDC004ECE83A741A422D406D626D24AD052CC9B
:104CEC00454489EB938781D683C7370013F7570068
:104CFC0019EB49442285B250225492540259F2497C
:104D0C00624A4561828003A741A7414465D70347A6
:104D1C0007006DD3858B2E892A8AC1C7834709006A
:104D2C000547F91793F7F70FE365F7FC9165938542
:104D3C007571314597F0FE1FE78000AC23A2A1A44A
:104D4C004D444DD923004501A30005002946CA85D1
:104D5C00090597F0FE1FE780A0C0138481C70347A5
:104D6C0024008D476317F704EFD0FFF42C00EF807D
:104D7C00A0552800EFE08FC8854745452302F40075
:104D8C00EFE0EFED1375F50FA302A40001443DD144
:104D9C0003C581D65D66130606709145EFC00FD032
:104DAC0091BFEFE07FAB2A84EF60600EE378A4F64E
:104DBC00B5BFEFF09FC62A8415DDEFF09FB81DBF7D
:104DCC00411126C283A741A406C622C44AC0A1C36E
:104DDC0083C707000D44639DA70203C581D689458F
:104DEC00EFC0AFCE03C581D69145239601A6EFC087
:104DFC00CFCDA38E01C683A741A40145A380870014
:104E0C002244B2409244024941016F90003349441C
:104E1C002285B240224492440249410182804111D0
:104E2C0006C622C426C285476315F5061384C1A69F
:104E3C0083570400A1C703C7C1C729E31307B003F5
:104E4C006369F70203C581D68945EFC00FC80356C5
:104E5C0004009307006403C581D63306F602894526
:104E6C00EFC02FB123100400B24022449244410100
:104E7C008280938747FC2310F400FDB783A741A4DD
:104E8C00E5D72244B240924403C5070041016FF0BC
:104E9C003FF383A741A4E9DB938781D683C737000F
:104EAC00918BF9D303C581D68945EFC00FC222443B
:104EBC00B2409244239601A641016FF09FA883C78C
:104ECC00B1D6958BD9CFB9CD83A741A7D9CBFD4707
:104EDC0063EBC70811C2C1CA411122C44AC006C63D
:104EEC0026C2238AA19E36893284A1C1938441A70C
:104EFC0088407D4681450505EFB09FEA8840CA850C
:104F0C002286050597F0FE1FE78080A58C40228540
:104F1C00238085002244B240924402498505410118
:104F2C006F90202183A7C1A755B79384C1A7884050
:104F3C007D4681450505EFB0BFE68840CA852286CF
:104F4C00050597F0FE1FE780A0A18C4022852380E9
:104F5C0085002244B24092440249850541016F907C
:104F6C00801D4945828009458280797106D622D4FC
:104F7C0026D24AD04ECE52CC8D4763FCA7000944B2
:104F8C002285B250225492540259F249624A456128
:104F9C00828003C781C74144E314F7FE938781C71E
:104FAC0083C927009307F5FF93F7F70F85462E84E7
:104FBC002A89938481C763E4F60695E19945280014
:104FCC00EFD0FFA203C581D6914523812401EFC008
:104FDC00CFAFA382040029CC2381340155B71946E5
:104FEC0081452800EFB0DFDB19462C002285EFB09D
:104FFC005FE151F519469305F00F2800EFB05FDA29
:10500C0019462C002285EFB0DFDF35F9A285194651
:10501C00280097F0FE1FE780A094014465B7014477
:10502C00E312E5FAC8442C00EF80002A2A8459BF09
:10503C00631409000144A9B72800EFE02F9C2A84CF
:10504C0041FD8D47E318F9FE4545EFE04FC113755F
:10505C00F50FA382A40079DD03C581D65D66130626
:10506C0006709145EFC08FA321BF83C7B1D6918B3A
:10507C0089CF4111138501A706C6EFD0FF96B24028
:10508C007D57239FE1C64101828001456FD0DF959A
:10509C00411122C403A541A706C626C24AC01384E7
:1050AC0041A719C597F0FE1FE7802080232004003C
:1050BC0003A5C1A79384C1A719C597E0FE1FE7807C
:1050CC00C07E23A00400138981D683473900958BB9
:1050DC00ADCB138581B2EFD0DF9083473900958B30
:1050EC0081EB4D45B24022449244024941018280F9
:1050FC001169930569711305000297E0FE1FE780A3
:10510C00A06F08C079DD130600028145EFB05FC9BE
:10511C00930559711305000297E0FE1FE780C06DDF
:10512C0088C001C9130600028145EFB07FC7014555
:10513C0055BF084097E0FE1FE7802077232004002E
:10514C004DB70145EFD0FF89DDB703C70500937656
:10515C0025009377D70F99C2936727001318850101
:10516C001358884113F7F7076354080013E707082F
:10517C00937685009377770F99C29367870013779F
:10518C00050293F6F70D19C393E607022380D500A9
:10519C00634508009377A50281CB8347060093E70C
:1051AC00C7002300F60082807DFD83470600CD9B5F
:1051BC00CDBF2D456317071403C805000947631EAF
:1051CC00E812C84103471500034505002207498F23
:1051DC0042070D654187930825A06309170B011140
:1051EC0022CC26CA4AC84EC606CEBE89B6843284A4
:1051FC002E8963CEE800930705A0630DF702130513
:10520C0015A0630EA704239004000545A5A09307E1
:10521C0045A06307F7086346F706130565AAE31470
:10522C00A7FE85472390F600DC4583C707002300C3
:10523C00F60081A0C845EFB0DFB7420541814E862C
:10524C00637335012A862390C4004206418283256C
:10525C00C900228597E0FE1FE780807019A8DC4505
:10526C0083D70700239006012300F600A183A30037
:10527C00F6000145F2406244D2444249B24905610C
:10528C00828099472390F6001946D1B78547239021
:10529C00F600DC45014583C707002300F600828039
:1052AC00DC45A9CB21472390E60003D70700230058
:1052BC00E60003D707002183A300E60003D72700ED
:1052CC002301E60003D727002183A301E60003D7BF
:1052DC0047002302E60003D747002183A302E60020
:1052EC0003D767002303E60083D76700A183A303DA
:1052FC00F60041B723900600ADBF2390060005458C
:10530C008280828083C8050089476391F814DC4150
:10531C00797122D406D626D24AD04ECE52CC03C8AE
:10532C00170083C707002E8422083368F800420850
:10533C008D6713580841138327A0630A680E2A8AC5
:10534C003A89B684B285634C0301138707A0630ABC
:10535C00E802938717A06303F808854711A8138701
:10536C0037A06303E80A138767AA8D47E317E8FEA3
:10537C00B250225492540259F249624A3E85456118
:10538C008280484432C6EFB0DFA2420541819D477E
:10539C00E36025FFB3099900D547B24563D43701C3
:1053AC00B547F9B748442686C2094A9597E0FE1FCF
:1053BC00E780005B484493D90901594633063641CE
:1053CC0081454E95EFB0DF9D83A741A899E38147B6
:1053DC0045B79C438145E5DF52852DA0AD47E319C8
:1053EC0009F8E39F16FB83471600834606005844D2
:1053FC00A207D58F2310F70083A741A8E9DB9C43B4
:10540C008545F1D78297E1B7AD47E31309F6994784
:10541C00E398F6F84844194697E0FE1FE78040549D
:10542C0083A741A8CDD79C43DDD38D4575B7AD4738
:10543C0021F38547E396F6F6034706009307000829
:10544C00E3E8E6F2DC452380E70051B785473E856B
:10545C00828023A201A88947238CF19E138F819F00
:10546C008147938E41B35947B386FE0023800600D3
:10547C008507E39BE7FEB707A0009385C19F938741
:10548C0007059CC1B707E803DCC1238101A837D607
:10549C0002009387C18C1306C61DD0C337D60200F9
:1054AC000947138E519F1306061B2300EE00D0C72D
:1054BC0023AEE70123AEC70337D6020037DF020065
:1054CC0037DE020085461306061C9388919F1383D2
:1054DC0001A81388719F1385619F130F8F1C130EE6
:1054EC008E1B2380E8002380E7002388E7002380BD
:1054FC00E7022388E7022380E7042300E8002384E3
:10550C00D70023950700D0CB238CD700239D070011
:10551C0023A2E7032384D7022395070223A6D703EC
:10552C00D0DB238CD702239D070223A2C70523843B
:10553C00D70423950704231003002300D50023A6CA
:10554C0067042388E70423AE17052380E706238826
:10555C00E7062380E708B7D8020037D70200130705
:10556C00C71B9388881D23A2E708F0CB238CD70494
:10557C00239D070423A217072384D7062395070628
:10558C00ECD7F0DB238CD706239D070623AE070749
:10559C002384D7082395070823A6A70837570100AB
:1055AC009387C1951307E71B98C33757010013075F
:1055BC000731D8C323A407008280A54763E1A70C59
:1055CC00B7D70200938707E40A053E951C414111A9
:1055DC0022C426C206C64AC0B2842E848287D5470E
:1055EC00614563E1B70259468145138541B3EFB07C
:1055FC002FFB2286A685138541B397E0FE1FE7801B
:10560C0020360145B2402244924402494101828035
:10561C0089476145E398F5FE035706002390E1A8FE
:10562C00CDB7A1476145E39FF5FC2146A6851385BF
:10563C00C19FEF70C173F1B785476145E394F5FCE9
:10564C009385C18CD04D9385850203C50400EFF082
:10565C00DFAF45BF85476145E396F5FA9385C18C6D
:10566C00D05D93858504D5B785476145E39CF5F8F6
:10567C0003470600238BE19E69B7094561B70945CD
:10568C0082800547630AE5024111AA8706C62E856A
:10569C0099CB11476388E7022547638BE7020945DD
:1056AC00B240410182805546938541B397E0FE1F7D
:1056BC00E780002B0145EDB783D701A80145239066
:1056CC00F500828021469385C19FEF70416ADDB75A
:1056DC0083C7619F2380F500F1BF938721A803C77F
:1056EC00070011EF05472380E700058909C9938658
:1056FC00C1954146A5451385C18C6F30C05C0145F1
:10570C00828001111388F5FF06CE22CC26CA4AC826
:10571C004EC652C41378F80FAD4563ED050BB7D5E3
:10572C0002000A08938585E62E983E8A8327080096
:10573C00BA893689B28482878545EFD04FC62A84D0
:10574C0019E1EFF0FF942285F2406244D2444249C1
:10575C00B249224A056182808945EFD04FC42A8420
:10576C007DF12685EFF08F94F9BF9145EFD02FC3D3
:10577C002A8471F95286CE854A85EFD0EFB9EFF0C5
:10578C003F91EFF09F8EEF70F06675BFA145EFD0A3
:10579C000FC12A844DF95286CE854A85EFD0CFB7FA
:1057AC002685EFF0AF90EFF04F8FEF70304761BF71
:1057BC00B145EFD0CFBE2A8459F55286CE854A85A5
:1057CC00EFD08FB52685EFF06F8EEFF00F8DEF7069
:1057DC00F04475B7094485BF79714ECEAE896C0023
:1057EC0022D426D24AD006D62A89B284EF0070750C
:1057FC002A840DE1CE854A85EFC01F932A8419E9CE
:10580C003245B72601002687938666122D468145C0
:10581C00EF10000E2285B250225492540259F249D4
:10582C004561828079714ECEAE896C0022D426D22D
:10583C004AD006D62A89B284EF00B0702A840DE1D2
:10584C00CE854A85EFC07F9C2A8419E93245B7265C
:10585C00010026879386C6204D468145EF104009EE
:10586C002285B250225492540259F24945618280E9
:10587C00397126DAAE844C0022DC4AD84ED652D48A
:10588C0006DEAA893289368AEF00B06B2A8431EDA4
:10589C00A6856303090283D704002C002314F100AE
:1058AC0083D724002315F100930720302316F10031
:1058BC00930780022307F1004E85EFC0DF832A8413
:1058CC000DE55946A6851305A1002304210197E097
:1058DC00FE1FE780E0081245B72601005287938629
:1058EC00060D25462C00EF10A0002285F2506254C4
:1058FC00D2544259B259225A21618280797126D2EE
:10590C00AE846C0022D44AD04ECE06D6AA893289F7
:10591C00EF0030632A840DE1A6854E85EFC0BF826F
:10592C002A8419E93245B72601004A879386461422
:10593C003546A685EF00D07B2285B2502254925476
:10594C000259F24945618280BD47638CF50663E9D3
:10595C00B702A5476387F50663EDB7009947638CDB
:10596C00F5049D47638FF5049547638CF504014559
:10597C008280B5476387F50463E1B704AD47F5B79B
:10598C00DD47638EF50263EAB700C947638BF50206
:10599C00D9476386F502C547C9BFF5476383F5024E
:1059AC0063E4B700ED47D1B793072005638BF5008F
:1059BC009307200D5DBF48458280084182800845D1
:1059CC008280484182809307F00F630CF506011129
:1059DC0026CAAA841305000222CC4AC84EC652C459
:1059EC0056C206CE3A89B689B28A2E8AEFB0EF9D9E
:1059FC002A844D4515C8930700FB2300F400A3002F
:105A0C00540123114401230234011305840061461F
:105A1C0063050902CA8597E0FE1FE78060F4A28542
:105A2C002685EFB0CFA40145F2406244D2444249EE
:105A3C00B249224A924A056182808145EFB04FB645
:105A4C00F9BF09458280011122CC06CE2A84230697
:105A5C00B100A306C100EF50803319CD0347C50038
:105A6C00A147631FF70003C541A078009306E00728
:105A7C000146A285EFF03FF5F24062440561828059
:105A8C0078009306E0070146A28503C551A0DDB757
:105A9C00930700643306F6026FB0CFF505C90347D0
:105AAC00050085469307270093F7F70F63F0F6027E
:105ABC00411122C42A843A8506C6EFB01F84FD57D3
:105ACC002300F400B24022444101828082800357BB
